:100000000C9443000C9460000C9460000C9460000D
:100010000C9460000C9460000C9460000C946000E0
:100020000C9460000C9460000C9460000C946000D0
:100030000C9460000C9460000C9460000C946000C0
:100040000C9460000C9460000C9460000C946000B0
:100050000C9460000C9460000C9460000C946000A0
:100060000C9460000C94600005A84CCDB2D44EB93D
:100070003836A9020C50B9918688083CA6AAAA2A4B
:10008000BE000000803F11241FBECFEFD8E0DEBFCE
:10009000CDBF12E0A8E0B1E001C01D92A830B107C9
:1000A000E1F711E0A0E0B1E0E0EDFEE002C0059074
:1000B0000D92A830B107D9F70E9482050C9466070B
:1000C0000C9400008F929F92AF92BF920F931F9358
:1000D0004B015C0120E030E040E05FE40E9422033D
:1000E00087FD0EC020E030E040E05FE4C501B401D0
:1000F0000E940D020E9451038B019C01305806C0E2
:10010000C501B4010E9451038B019C01B801C901D2
:100110001F910F91BF90AF909F908F900895A0E096
:10012000B0E0E5E9F0E00C949E053C01CB01EA016A
:10013000D3012C91223008F43EC1FB0130813230D2
:1001400008F436C1243071F4343009F034C111960A
:100150002C918181281709F42EC1B0E06B2EB1E0FB
:100160007B2E29C1343009F423C1323091F422307E
:1001700009F021C128E0F301DA0101900D922A95DE
:10018000E1F7DB0111968C91F30191818923898339
:1001900011C1223009F40CC1D3011296ED91FC91EA
:1001A0001397DB0112966D917C911397D3011496EE
:1001B0000D911D912D913C911797DC011496CD90D6
:1001C000DD90ED90FC901797AF01461B570BDA01BD
:1001D00057FF04C0AA27BB27A41BB50BA032B1054B
:1001E0000CF065C0141615067CF5B701A6010A2EA1
:1001F00004C076956795579547950A94D2F7812C58
:10020000912C5401839404C0880C991CAA1CBB1C1B
:10021000AA95D2F7B1E08B1A9108A108B1088C20F9
:100220009D20AE20BF20C12CD12C7601C394811417
:100230009104A104B10419F4C12CD12C7601C42A73
:10024000D52AE62AF72A3EC0452BE1F1EA0FFB1F2B
:10025000B901A8010A2E04C0769567955795479570
:100260000A94D2F7812C912C5401839404C0880CF9
:10027000991CAA1CBB1CAA95D2F7A1E08A1A910866
:10028000A108B10880229122A222B32201E010E04D
:1002900020E030E081149104A104B10419F400E0DD
:1002A00010E09801042B152B262B372B0BC06E1753
:1002B0007F0724F4C12CD12C760104C0FB0100E09F
:1002C00010E09801D30111964C91DC0111968C91AC
:1002D000481709F442C0442349F0D701C601801BE6
:1002E000910BA20BB30B8C019D0104C00C191D09CD
:1002F0002E093F0937FD04C01982FB83EA830BC036
:1003000081E08983FB83EA833095209510950195E0
:100310001F4F2F4F3F4F0C831D832E833F830DC0F4
:10032000880F991FAA1FBB1F8C839D83AE83BF8339
:100330008A819B8101979B838A838C819D81AE8179
:10034000BF818C019D0101501109210931090F3F25
:100350001F4F2F4F3F4320F30BC04983FB83EA839A
:100360000C0D1D1D2E1D3F1D0C831D832E833F83F1
:1003700083E088830C811D812E813F8137FF1AC065
:10038000D901C80181709927AA27BB2736952795DF
:1003900017950795802B912BA22BB32B8C839D83D4
:1003A000AE83BF838A819B8101969B838A8302C02F
:1003B0003C0101C03E01C301CDB7DEB7EEE00C94B5
:1003C000BA05A0E2B0E0E7EEF1E00C94AA056D8F6B
:1003D0007E8F8F8F98A3298F3A8F4B8F5C8FBE01B2
:1003E0006F5E7F4FCE014D960E946104BE01675F34
:1003F0007F4FCE0149960E946104AE014F5F5F4F6F
:10040000BE01675F7F4FCE0141960E948F000E9420
:10041000A003A096E2E00C94C605A0E2B0E0E3E100
:10042000F2E00C94AA056D8F7E8F8F8F98A3298F91
:100430003A8F4B8F5C8FBE016F5E7F4FCE014D9622
:100440000E946104BE01675F7F4FCE0149960E9402
:1004500061048A8591E089278A87AE014F5F5F4FEB
:10046000BE01675F7F4FCE0141960E948F000E94C0
:10047000A003A096E2E00C94C605A0E2B0E0E3E49D
:10048000F2E00C949C056D8F7E8F8F8F98A3298F3F
:100490003A8F4B8F5C8FBE016F5E7F4FCE014D96C2
:1004A0000E946104BE01675F7F4FCE0149960E94A2
:1004B00061049989923008F412C08985823008F469
:1004C0001AC0943021F4823009F4B4C008C08430DA
:1004D00021F4923009F4AEC00EC0923051F481E0A4
:1004E0002A899A85291301C080E08A8BCE01419622
:1004F000A3C0823051F481E02A899A85291301C072
:1005000080E08A87CE01099697C08D889E88AF8843
:10051000B88C0D851E852F853889E0E2F0E080E0FB
:1005200090E0DC01C12CD12C760140E050E0BA0112
:1005300080FE18C0400F511F621F731F8C0D9D1D40
:10054000AE1DBF1D412C512C320143944017510761
:100550006207730718F0412C512C3201840D951D50
:10056000A61DB71DCC0CDD1CEE1CFF1C37FF02C006
:100570006894C0F8000F111F221F331FB694A79470
:10058000979487943197A1F62B893C89EB85FC855C
:100590002E0F3F1F2E5F3F4F3C832B8321E0EA89C4
:1005A0003A85E31301C020E02A83EB81FC810CC073
:1005B00080FF05C076956795579547957068B69505
:1005C000A795979587953196B7FDF2CF9F010CC0FF
:1005D000880F991FAA1FBB1F77FD8160440F551F0D
:1005E000661F771F215031090097A105E0E4BE077F
:1005F00078F32B833C838C019D010F7711272227F1
:100600003327003411052105310559F487FD09C050
:10061000452B462B472B29F0805C9F4FAF4FBF4F98
:1006200080788D839E83AF83B88783E08983CE01F2
:10063000019602C080E091E00E94A003A096E0E154
:100640000C94B805A8E1B0E0E8E2F3E00C94AA0548
:100650006D8B7E8B8F8B988F298B3A8B4B8B5C8B22
:10066000BE01675F7F4FCE0145960E946104BE01C7
:100670006F5F7F4FCE0141960E9461048985823071
:1006800058F08981823040F0BE016F5F7F4FCE010C
:1006900009960E94D00401C08FEF6896E2E00C94A6
:1006A000C605ACE0B0E0E7E5F3E00C94A805698787
:1006B0007A878B879C87BE016F5F7F4FCE0109963B
:1006C0000E9461048981823091F1823080F184300E
:1006D00041F48A81882331F100E010E020E030E825
:1006E00029C02B813C8137FD22C02F3131058CF789
:1006F0008EE190E0821B930B0D811E812F81388546
:1007000004C036952795179507958A95D2F78A8163
:10071000882381F030952095109501951F4F2F4F1C
:100720003F4F08C00FEF1FEF2FEF3FE703C000E080
:1007300010E09801B801C9012C96E4E00C94C405BE
:100740000F931F93CF93FC0144815581668177817C
:10075000C1818081823020F460618FEF90E0A3C07E
:10076000843009F49BC0823009F492C041155105D0
:100770006105710509F48FC02281338122388FEF22
:1007800038070CF057C0E2E8FFEFE21BF30BEA3149
:10079000F10564F58A019B010E2E04C0369527955C
:1007A000179507950A94D2F781E090E0A0E0B0E0B9
:1007B00004C0880F991FAA1FBB1FEA95D2F70197A3
:1007C000A109B10984239523A623B72341E050E072
:1007D00060E070E0892B8A2B8B2B19F440E050E00D
:1007E000BA01402B512B622B732B03C040E050E029
:1007F000BA01DB01CA018F779927AA27BB2780346A
:100800009105A105B10539F447FF09C0405C5F4F70
:100810006F4F7F4F04C0415C5F4F6F4F7F4F81E050
:1008200090E041155105610520E4720748F580E02C
:1008300090E026C0203831058CF5DB01CA018F77A6
:100840009927AA27BB2780349105A105B10539F462
:1008500047FF09C0405C5F4F6F4F7F4F04C0415C52
:100860005F4F6F4F7F4F77FD04C0C90181589F4F85
:1008700007C07695679557954795C90180589F4F52
:1008800097E076956795579547959A95D1F70BC060
:1008900080E090E005C080E090E005C08FEF90E040
:1008A00040E050E0BA01982F9695C0FB97F9362F9B
:1008B00080FB37F9642F752F832FCF911F910F91F4
:1008C0000895CF92DF92EF92DC01FB01CC9011965C
:1008D000DC90119712968C9112973FE7E32EE82255
:1008E0006E2DA60170E0982F991F9927991F1396D6
:1008F0002C91822F880F892B90E027FB222720F94B
:100900002183009729F5411551056105710511F401
:1009100082E027C082E89FEF9383828327E0440F21
:10092000551F661F771F2A95D1F783E0808309C082
:10093000440F551F661F771F828193810197938310
:10094000828341155105610580E4780788F320C052
:100950008F3F910579F4411551056105710519F431
:1009600084E0808319C0E4FE03C081E0808310C06E
:1009700010820EC08F5791099383828383E0808316
:1009800087E0440F551F661F771F8A95D1F7706463
:100990004483558366837783EF90DF90CF900895EB
:1009A000CF93FC01DB019081923008F452C08C910E
:1009B000823008F44EC0943071F4843039F41196CA
:1009C0002C9130E08181281B310948C08181882326
:1009D00009F43FC03BC0843029F411968C918111F9
:1009E00038C034C0923019F48230B9F735C0823043
:1009F00069F3C18111968C911197C8131DC0228192
:100A0000338112968D919C911397821793070CF462
:100A100013C0281739070CF417C04481558166812B
:100A2000778114968D919D910D90BC91A02D841786
:100A30009507A607B70718F4C11108C00AC04817E0
:100A400059076A077B0740F4C11103C02FEF3FEF3E
:100A500005C021E030E002C020E030E0C901CF91C4
:100A600008958FEF8AB91BB8089507C0EFEFFEE035
:100A70003197F1F700C0000001970097B9F708958A
:100A8000EF92FF920F931F93CF93DF9388E0E82EAE
:100A900081E0F82E00E010E0D0E0C0E09E01602F81
:100AA000712F832F9C2F0E94D10520E030E040E879
:100AB0005FE30E94E10120E030E04EEF52E40E944B
:100AC0003D020E946200F70161937F0123EC35EF44
:100AD00048EC5CE3FE01602F712F8F2F9C2F0E944A
:100AE000E1018B01D82FC92FF9E0EF16F2E0FF06E4
:100AF000A9F6DF91CF911F910F91FF90EF9008958C
:100B00008BB908950E9431050E944005EE24E394BC
:100B1000F12CF701E85FFE4F80818BB98AE090E00D
:100B20000E9435058FEFE81AF80A81E0E816F8060A
:100B300084F3ECCF2F923F924F925F926F927F920D
:100B40008F929F92AF92BF92CF92DF92EF92FF92DD
:100B50000F931F93CF93DF93CDB7DEB7CA1BDB0B89
:100B60000FB6F894DEBF0FBECDBF09942A8839882E
:100B700048885F846E847D848C849B84AA84B98435
:100B8000C884DF80EE80FD800C811B81AA81B98141
:100B9000CE0FD11D0FB6F894DEBF0FBECDBFED0155
:100BA00008959F9305D00F9007FCEE5F28C0CEC03C
:100BB0003FD0E8F3E894E0E0BB279F57F0F02AED40
:100BC0003FE049EC06C0EE0FBB0F661F771F881F82
:100BD00028F0B23A62077307840728F0B25A620B12
:100BE000730B840BE3959A9572F7803830F49A95DD
:100BF000BB0F661F771F881FD2F790489BC0EF93EB
:100C0000E0FF06C0A2EA2AED3FE049EC5FEB37D0F7
:100C1000BFD00F90039401FC9058E8E6F0E099C033
:100C200057FD9058440F551F59F05F3F71F047959D
:100C3000880F97FB991F61F09F3F79F08795089582
:100C4000121613061406551FF2CF4695F1DF08C0A1
:100C5000161617061806991FF1CF869571056105BE
:100C60000894089587D030F08CD020F031F49F3F65
:100C700011F41EF46BC00EF4E095E7FB53C0E92FAE
:100C8000CFDF80F3BA17620773078407950718F060
:100C900071F49EF58EC00EF4E0950B2EBA2FA02DA8
:100CA0000B01B90190010C01CA01A0011124FF2719
:100CB000591B99F0593F50F4503E68F11A16F04014
:100CC000A22F232F342F4427585FF3CF4695379513
:100CD0002795A795F0405395C9F77EF41F16BA0BD8
:100CE000620B730B840BBAF09150A1F0FF0FBB1F86
:100CF000661F771F881FC2F70EC0BA0F621F731FCF
:100D0000841F48F4879577956795B795F7959E3F2B
:100D100008F0B3CF9395880F08F09927EE0F9795B9
:100D20008795089597F99F6780E870E060E00895DF
:100D30009F3F31F0915020F4879577956795B7954F
:100D4000880F911D9695879597F908959FEF80ECF0
:100D500008959F938F937F936F93FF93EF939B01DE
:100D6000AC018BDBEF91FF912BD02F913F914F91F5
:100D70005F9183CB00240A941616170618060906FD
:100D8000089500240A941216130614060506089501
:100D9000092E0394000C11F4882352F0BB0F40F489
:100DA000BF2B11F460FF04C06F5F7F4F8F4F9F4FC9
:100DB0000895E894BB2766277727CB0197F9089514
:100DC000DF93CF931F930F93FF92EF92DF927B01FC
:100DD0008C01689405C0DA2EEF0121D0FE01E89461
:100DE000A5912591359145915591AEF3EF0147DFDE
:100DF000FE019701A801DA9479F7DF90EF90FF9058
:100E00000F911F91CF91DF910895B4DF28F0B9DFE2
:100E100018F0952309F086CF99CF1124CBCF00DFAE
:100E2000A0F3959FD1F3950F50E0551F629FF001FD
:100E3000729FBB27F00DB11D639FAA27F00DB11D56
:100E4000AA1F649F6627B00DA11D661F829F2227DF
:100E5000B00DA11D621F739FB00DA11D621F839F66
:100E6000A00D611D221F749F3327A00D611D231F3C
:100E7000849F600D211D822F762F6A2F11249F578A
:100E800050408AF0E1F088234AF0EE0FFF1FBB1FAD
:100E9000661F771F881F91505040A9F79E3F51054C
:100EA00070F040CF87CF5F3FECF3983EDCF3869540
:100EB00077956795B795F795E7959F5FC1F7FE2BF7
:100EC000880F911D9695879597F90895F894FFCF0F
:080ED00000000000000000001A
:00000001FF
