:100000000C9434000C943E000C943E000C943E0082
:100010000C943E000C943E000C943E000C943E0068
:100020000C943E000C943E000C943E000C943E0058
:100030000C943E000C943E000C943E000C943E0048
:100040000C943E000C943E000C943E000C943E0038
:100050000C943E000C943E000C943E000C943E0028
:100060000C943E000C943E0011241FBECFEFD8E04C
:10007000DEBFCDBF0E9452000C9468000C940000BB
:100080008FEF8AB91BB814B8089507C0EFEFFEE0F0
:100090003197F1F700C0000001970097B9F7089574
:1000A0008BB908950E94400093B183B18F71880F7E
:1000B000880F95FBEE24E0F8F12CEE0CFF1C91E08C
:1000C000E91AF1088E9D802D112481588BB9ECCF4F
:0400D000F894FFCFD2
:00000001FF
